:400000000080002011000000110100001101000080B500AF024A034B1B68136000F082F8BC760040FA46004010B5054C237833B9044B13B10448AFF300800123237010BD79
:400040009081FF1F000000003C270000084B10B51BB108480849AFF300800848036803B910BD074B002BFBD0BDE81040184700BF000000003C2700009481FF1F0881FF1F6B
:400080000000000080B582B000AF0023FB7162B61D4801F033FA0020012100F0C9FA00BF00F06AFC0346002BFAD001201749032200F06EFC00BF012000F0E6FC0346002B92
:4000C000F9D001201149032200F062FCFB790133FB7102F0FFF90346002B06D1012002F009FA0A4B01221A7005E0002002F002FA064B00221A7002F01BFA03463B603B686A
:40010000184602F0BBFAD5E70C81FF1FAC81FF1F80B500AF02F086FA03461B680C2B00D1FEE7FEE780B586B000AF224B7B61224B3B61204B7B6135E03B691B68FB603B6926
:400140005B68BB603B699B683B6000237B600CE0FB681A68BB681A60BB680433BB60FB680433FB607B6804337B607A683B689A42EED13B69DB683B6000237B6008E0BB68E9
:4001800000221A60BB680433BB607B6804337B607A683B689A42F2D13B6910333B617B69013B7B617B69002BC6D102F041FAFFF769FFFEE7010000001029000080B582B0DF
:4001C00000AF174B174A1A60174A174B1B6843F40073136000237B600FE07B68032B04D8124A7B6852F8233000E0114B11497A6841F822307B6801337B607B682F2BECD903
:400200000D4B1B78DAB20D4B1A700D4B094A1A6000F070F90B4B00221A600837BD4680BD0CED00E00004FA0514ED00E000000000110100000080FF1FBC7600400481FF1FF4
:4002400008ED00E00081FF1F80B582B000AF78603960786800213A6802F023FA0837BD4680BD00BF80B584B000AFF860B9607A60F868B9687A6802F009FA1037BD4680BD51
:4002800080B483B000AF0346FB71FEE780B487B000AF7860396000233B6100237B6127E07B699B007A6813441B68BB60BB68FB73BB6823F0FF03BB6014E03B695B003A686F
:4002C00013441B781A46BB68134419463B695B003A6813445B780B703B6901333B61FB7B013BFB73FB7B002BE7D17B6901337B617B69132BD4D91C37BD465DF8047B704704
:4003000080B582B000AF354B11221A80344B18221A70344B11221A80334B18221A70334833490422FFF79EFF324B06221A70324B52221A70314B324A1278D2B21A70314B23
:4003400040F20B721A80304B41F251221A800023FB7019237B6014E0FB785B00DAB22B4B1B78DBB203F00103DBB21343DBB203F00303FB704FF4F07002F0EAF87B68013B8F
:400380007B607B68002B02D0FB78032BE4D17B68002B02D10320FFF773FF1D4B4FF480721A801B4B07221A701A4B00221A701A4B48221A70164B00221A70184B00221A70EA
:4003C000174B02221A70174A164B1B78DBB243F00303DBB213700837BD4680BD8040004082400040844000408640004000410040E80000480043004000420040A14600405A
:400400000F0100492242004020420040254200400440004006400040084000400940004001400040A243004080B582B000AF234B1B78FB71224B1B78BB71224B1B787B711A
:40044000214AFB7903F00703DBB213701F4AFB791B09DBB213701A4ABB7943F00303DBB21370184A7B7943F00303DBB21370184BC0221A70174B80221A70174B80221A7014
:40048000164B08221A70164B20221A70154B04221A70154B20221A70144B08221A700A2001F0BCFF074A7B791370054ABB7913700F4B44221A700837BD4680BDCF01004925
:4004C000F8460040F94600406E5800406F5800401D5100400159004009590040205B0040235B0040285B00402B5B0040585B00407658004080B582B000AF72B63A4A3A4BBE
:400500001B78DBB243F00403DBB213700023FB7113E0FA7913465B0013445B00334A13443B603B681A683B689B889BB210461946FFF78AFEFB790133FB71FB79062BE8D9A2
:400540004FF090402A49FFF7A1FE2A4A294B1B78DBB243F00203DBB21370274A264B1B78DBB243F00203DBB21370244A234B1B78DBB243F04003DBB21370214A204B1B78DF
:40058000DBB243F01003DBB213701E481E490822FFF768FE1D481E490A22FFF763FE1D481D490A22FFF75EFE1C481D490A22FFF759FE1C4A1B4B1B78DBB243F00803DBB273
:4005C0001370194B60221A70FFF79AFE164B80221A70FFF729FF154808490E22FFF742FE0837BD4680BD00BFE846004040270000500000480350014013500140A0430040B5
:40060000C243004002510040BC000048F0510040C400004810510040D000004820510040DC0000482243004000480040B043004080B582B000AF03460A46FB711346BB71C3
:40064000084B1B78002B04D100F00EF8054B01221A70FA79BB791046194600F0C1F80837BD4680BDB081FF1F80B582B000AF01F08EFF0346FB714B4A4A4B1B78DBB243F008
:400680000103DBB21370484A474B1B78DBB243F00103DBB21370454B01221A70444B02221A70444A434B1B78DBB203F07F03DBB21370002001F0B2FE3F4A3F4B1B78DBB26C
:4006C00023F00603DBB213703C4A3C4B1B78DBB223F02003DBB21370374A374B1B78DBB243F00103DBB21370012001F097FE282001F094FE324A324B1B78DBB203F07F03F1
:40070000DBB213702E4A2E4B1B78DBB223F04003DBB21370284A284B1B78DBB243F00203DBB21370022001F079FE234A224B1B78DBB243F00403DBB21370224B00221A70FE
:40074000214B00221A70FB79184601F024FF1720072101F09DFE17201C4901F071FE1820072101F095FE1820194901F069FE1520072101F08DFE1520164901F061FE0020E1
:40078000072101F085FE0020134901F059FE0C20072101F07DFE0C20104901F051FE0837BD4680BDA5430040B54300409D6000400960004010600040944300401260004016
:4007C000F851004084600040856000403D110000C90A000031110000E9100000F114000080B584B000AF03460A46FB711346BB710023FB7306E0FB7B2F4A0121D154FB7B01
:400800000133FB73FB7B002BF5D02C4AFB7913702B4B00221A702B4B00221A702A4B00221A702A4B00221A70294B00221A70294B00221A70284B00221A70284B4FF40002A6
:400840001A60264B4FF080721A60244B4FF400121A60224B01221A60BB79002B02D0012B09D011E01E4A1E4B1B78DBB223F00103DBB2137011E01A4A194B1B78DBB243F04F
:400880000103DBB2137008E0154A154B1B78DBB243F00103DBB2137000BF124B03221A70114B80221A70012001F052FE0F4B04221A701037BD4680BD6482FF1FD881FF1F55
:4008C000DE81FF1FDC81FF1FDD81FF1FD981FF1FC481FF1FDB81FF1F5482FF1F00E100E00960004028600040086000401260004080B483B000AF0023FB7106E0FB79144A52
:400900000121D154FB790133FB71FB79002BF5D0104B00221A70104B00221A700F4B00221A700F4B00221A700E4B00221A700E4B00221A700D4B00221A700D4B03221A70C9
:400940000C4B80221A700C37BD465DF8047B70476482FF1FDE81FF1FDC81FF1FDD81FF1FD981FF1FC481FF1FDB81FF1F5482FF1F286000400860004080B400AF034B1B782E
:40098000DBB21846BD465DF8047B7047DD81FF1FB0B485B000AF03463960FB711346BB80FB79002B66D0FB79082B63D8B988FA79324813465B0013449B000344DB889BB296
:4009C000C3F5007399420BD9FA792C4913465B0013449B000B44DB889BB2C3F50073BB80274CF979BB881B0A9BB2D8B2FA79234D13465B0013449B002B44DB78DBB20343D8
:400A0000DAB20B0123441A701D4AFB79B988C9B21B0113440A465A703B68002B13D00023FB810CE01748FB79FA8939680A4412781B01034408331A70FB890133FB81FA891F
:400A4000BB889A42EED3FA790C4913465B0013449B000B4400225A700948F979FA79074C13465B0013449B0023445B79DAB20B0103449A701437BD46B0BC7047E881FF1FA2
:400A8000FC5F00407060004080B485B000AF0346FB710023FB73FB79002B0BD0FB79082B08D8084AFB791B0113449B78DBB203F01003FB73FB7B18461437BD465DF8047BE9
:400AC000704700BFFC5F004080B582B000AF374B1B78BB71BB7903F01003002B63D00123FB71BB795BB2002B13DABB7903F00F03012B02D00023FB711DE000F061F82C4B8A
:400B00001B78DBB2DBB25BB2002B14DA0023FB7111E0BB7903F04003002B02D000F094F809E0BB7903F02003002B02D000F0B2F801E00023FB71FB79002B34D01B4B1B78A9
:400B4000BB71BB795BB2002B2DDB1A4B1B78DAB2194B1B78DBB21343BB71184ABB791370164B1B78DBB2BA799A421CD1104B1B78FB710E4B1B78DBB223F07F03BB71BB79ED
:400B8000002B0AD1094B0A4A1278D2B21A70074B1B78DBB203F00F03FB71054B1B78DBB2FA799A42E2D10837BD4680BD28600040C581FF1FDA81FF1F5582FF1F29600040B8
:400BC00080B582B000AF1D4B1B78FB711B4AFB7913701A4B1B78FB71FB795BB2002B03DA174AFB79137025E0022000F043FA154B1B78DBB203F06003202B08D0402B0BD044
:400C0000002B0ED100F09CFC0346FB710CE001F0CBFC0346FB7107E001F0BAFB0346FB7102E00023FB7100BFFB79002B02D1044B03221A700837BD4680BD00BF286000402C
:400C4000C581FF1F0060004080B500AF104B1B78DBB2062B19D801A252F823F08B0C00008B0C0000790C00008B0C00007F0C00008B0C0000850C000000F0FAF806E000F03A
:400C8000A9F903E000F0D2F900E000BF80BD00BFDE81FF1F80B500AF124B1B78DBB2062B1DD801A252F823F0DF0C0000DF0C0000C50C0000DF0C0000CB0C0000DF0C000001
:400CC000D10C000000F0DAF80AE000F029F907E0032000F0CFF9044B03221A7000E000BF80BD00BFDE81FF1FC581FF1F80B483B000AF0023FB71294B1B78DBB29AB2284B25
:400D00001B889BB213449AB2254B1A8015E02549FB79254A52681278D2B2CA54224B5B680133214A5360FB790133FB711E4B1B889BB2013B9AB21C4B1A801B4B1B889BB21C
:400D4000002B02D0FB79072BE1D9144B1B78DBB2082B02D0FB79002B0FD0144B1B78DBB283F07F03DB43DAB2104B1A70104B0F221A70104B02221A7005E00D4B02221A7007
:400D80000C4B02221A700C4AFB791370034AFB7913700C37BD465DF8047B70475482FF1F5A82FF1F00600040CC81FF1FDA81FF1FC581FF1FDE81FF1F5582FF1F80B582B01D
:400DC00000AF164B1B889BB2002B02D100F02EF81EE0134B02221A70124B00221A7000F069F9114BDB79DBB29BB21B029AB20E4B9B79DBB29BB21343FB80084B1B889BB22C
:400E0000FA889A4202D2054AFB881380FFF76EFF012318460837BD4680BD00BFCC81FF1FDE81FF1FDA81FF1F0060004080B400AF0A4B02221A700A4B80221A70094B0F220B
:400E40001A70094B00221A70084B00221A7001231846BD465DF8047B704700BFDE81FF1FDA81FF1FC581FF1F5482FF1F5582FF1F80B500AFFFF73AFF80BD00BF80B500AFE4
:400E80000A4B1B78DBB29AB2094B1B889BB213449AB2074B1A80074B00221A70012000F0E9F8054B03221A7080BD00BF5482FF1F5A82FF1FDE81FF1FC581FF1F80B582B07D
:400EC00000AF124B04221A70114B80221A7000F0F1F8104BDB79DBB29BB21B029AB20D4B9B79DBB29BB21343FB800B4B1B889BB2FA889A4202D2084AFB881380074B0B226D
:400F00001A70012318460837BD4680BDDE81FF1FDA81FF1F00600040CC81FF1FC581FF1F80B483B000AF0023BB71234B1B78DBB203F00F03DBB2023BFB71FB799AB21F4B69
:400F40001B889BB213449AB21C4B1A8018E01C4B5B681C49BA798A5CD2B21A70184B5B680133174A5360BB790133BB71FB79013BFB71134B1B889BB2013B9AB2104B1A8046
:400F80000F4B1B889BB2002B02D0FB79002BDED10D4AFB7913700D4B1B78DBB283F07F03DB43DAB2094B1A70094B0B221A700C37BD465DF8047B7047296000405A82FF1FBA
:400FC000CC81FF1F006000405582FF1FDA81FF1FC581FF1F80B500AF044B00221A70012000F048F8024B03221A7080BDDE81FF1FC581FF1F80B400AF084B06221A70084B8F
:4010000006221A70074B80221A70074B00221A7001231846BD465DF8047B7047DE81FF1FC581FF1FDA81FF1F5582FF1F80B500AF0C4B1B78DBB2002B0AD00B4A094B1B7887
:40104000DBB263F07F03DBB21370064B00221A70064B00221A70012000F00CF8044B03221A7080BDC481FF1F08600040DE81FF1FC581FF1F80B483B000AF0346FB710B4BA7
:401080009B68002B0CD0094B9B68FA791A70074B9B68074A128892B25A80044B00229A600C37BD465DF8047B704700BFCC81FF1F5A82FF1F80B400AF094B00221A80094BCD
:4010C0009B68002B07D0074B9B6800221A70054B9B6800225A80BD465DF8047B704700BF5A82FF1FCC81FF1F80B400AF0D4B01221A700D4B9B7C0D4B1B7BDBB203F003031E
:40110000012B08D0094BDB7BDBB283F07F03DB43DAB2064BDA73054B01225A73BD465DF8047B70470B600040FC5F0040E881FF1F80B400AFBD465DF8047B704780B500AF47
:40114000FFF7D6FB80BD00BF80B582B000AF0023FB716C4B1B79BB716A4B1B78DBB2DBB25BB2002B6DDA674B5B78DBB2013B052B65D801A252F823F0D7110000F11100000A
:401180001D1200003F1200003F120000911100005C4BDB78DBB2212B0BD100F0BDF85A4B1B889BB2002B15D0FFF708FE0346FB7146E0544BDB78DBB2222B0BD100F0EAF872
:4011C000514B1B889BB2002B04D0FFF7F7FD0346FB7135E034E000F025F94B4B1B889BB2002B04D0FFF7EAFD0346FB7128E027E0BB79002B11D1434B9B78DBB2002B0CD1F1
:40120000414B01221A80BB79404A13443E4A5360FFF7D4FD0346FB7112E011E0BB79002B0CD1394B01221A80BB79394A1344364A5360FFF7C3FD0346FB7101E000E000BF0D
:401240005AE0304B5B78DBB20A2B11D00B2B3FD0092B00D050E000F0E5F82B4B1B889BB2002B04D0FFF72AFE0346FB7144E043E0BB79002B2BD1234B9B78DBB2002B26D1F3
:40128000BB79204AD278D1B2204AD154BB791F4AD35CDAB2BB791F49CB5CDBB29A4204D2BB791C4A0021D1540CE0BB79194AD35CDBB2012B06D9BB79BA7914498A5CD1B283
:4012C000144AD154FFF796FE0346FB7114E013E0BB79002B0FD10B4B9B78DBB2012B0AD8BB79084A9278D1B2094AD154FFF782FE0346FB71FFE700BFFB7918460837BD4693
:4013000080BD00BF00600040CC81FF1F5C82FF1F6482FF1F6082FF1F80B584B000AF194B1B78DBB2013BDBB2184600F091FEF860154B1B79FB72FB7A0233DB00FA6813446D
:40134000FB60FB685B68FB60FB7A104AD35CDBB2DB00FA681344FB60FB685B68FB60FB682033FB60FB685B687B607B681B78DBB29AB2074B1A80064A7B6853601037BD4619
:4013800080BD00BFDD81FF1F00600040C881FF1FCC81FF1F80B584B000AF1E4B1B78DBB2013BDBB2184600F053FEF8601A4B1B79FB72FB7A0233DB00FA681344FB60FB6880
:4013C0005B68FB60FB7A154AD35CDBB2DB00FA681344FB60FB685B68FB60FB681833FB60FB685B687B607B6801331B78DBB29BB21B029AB27B681B78DBB29BB213439AB2E6
:40140000074B1A807B680233054A53601037BD4680BD00BFDD81FF1F00600040C881FF1FCC81FF1F80B584B000AF2D4B00221A802C4B1B78DBB2013BDBB2184600F008FE72
:40144000F860294BDB78FB72274B1B79BB72BB7A0233DB00FA681344FB60FB685B68FB60BB7A002B38D1BB7A204AD35CDBB2DB00FA681344FB60FB685B68FB60FB7A002BFF
:401480002AD0FB7A032B27D8FB7A03F10053013BDB00FA681344FB60134B9B78FB72FB681B78FA7A9A4217D8FB685B687B60FA7A13465B0013449B001A467B6813447B6006
:4014C0007B685B68064A53607B681A88044B1A807B689B68024A93601037BD4680BD00BFCC81FF1FDD81FF1F00600040C881FF1F80B500AF00F076FF80BD00BF80B483B0D0
:4015000000AF78600C4B00221A707B68002B0ED07B681B78012B0AD97B6801331B78032B05D1064A7B681360034B01221A700C37BD465DF8047B7047B881FF1FB481FF1FE6
:4015400080B586B000AF0023FB75A04B1B78FB7100233B619E4B00221A80FB795BB2002B80F20A81994B5B78DBB20A2B00F2028101A252F823F000BFCD16000075170000AB
:4015800075170000751700007517000075170000A5150000751700003F1700007517000055170000894BDB78DBB2012B0ED100F079FDB860BB685B68854A5360844B1222BF
:4015C0001A80FFF7FBFB0346FB757EE07F4BDB78DBB2022B24D17D4B9B78DBB2184600F037FDB860BB68002B6FD0BB685B68784A5360774B5B6803331B78DBB29BB21B0253
:401600009AB2734B5B6802331B78DBB29BB213439AB26F4B1A80FFF7D1FB0346FB75AAE06A4BDB78DBB2032B4AD10023FB73694B3B6109E03B691B78BB71BB793A69134407
:401640003B61FB7B0133FB73604B9B78DBB2FA7B9A4204D23B691B78DBB2002BEAD15B4B9B78DBB2EE2B01D15B4B3B61574B9B78DBB2002B11D0554B9B78DAB2574B1B7C61
:401680009A420AD1564B1B78DBB2002B03D0554B1B683B6101E0544B3B613B691B78DBB2002B12D03B691B78DBB29AB2484B1A80474A3B695360FFF781FB0346FB755AE07E
:4016C00000F072FF0346FB7555E054E0FB7903F00303002B1FD0022B00D02FE03C4B02221A803A4B1B79DBB203F07F023F4913465B0013449B000B449B78DAB23C4B1A7048
:401700003B4B00225A70324B394A5A60FFF756FB0346FB7512E02E4B02221A80354B1B78DAB2334B1A70324B00225A70284B304A5A60FFF743FB0346FB7500BF1BE0244B87
:4017400001221A80224B2C4A5A60FFF737FB0346FB7510E01E4B01221A801C4B1B79DBB21A46264B13441A4A5360FFF727FB0346FB7500E000BF1DE1144B5B78DBB2013BE8
:401780000A2B00F2168101A252F823F09F180000B319000029190000B3190000B9170000B3190000B3190000B319000005180000B31900005B180000044B9B78DAB2104B01
:4017C0001A70FFF717FC0346FB75F3E000600040CC81FF1FA4270000AC2800006C270000B881FF1FB481FF1FE4270000E881FF1FBC81FF1FDB81FF1FDD81FF1FC881FF1F99
:40180000C481FF1F6E4B9B787B717B79002B06D07B79013BDBB2184600F01AFCB8607B79002B02D0BB68002B02D17B79002B13D1644B1B78DBB27A799A4208D0614A7B7935
:401840001370614B01221A70012000F057F9FFF7D1FB0346FB75ADE0ACE000F061FD0346002B1BD0564B1B793B71554B1B79DAB2564B1A703B79564AD35CDAB23B795549BD
:40188000CB5CDBB29A4204D04F4B01221A7000F0C1FAFFF7AFFB0346FB758BE08AE0FB7903F00303012B22D0012B0DD3022B00D039E0434B9B78DBB2002B04D100F098FC45
:4018C0000346FB752FE02EE03D4B9B78DBB2012B0CD1414B1B78DBB223F00203DAB23E4B1A70FFF787FB0346FB751CE01BE0344B1B79DBB2002B15D1314B9B78DBB2DB436B
:40190000DBB22F4A1279D2B211461046334A125CD2B21340DAB2314B5A54FFF76BFB0346FB75FFE700BF45E0FB7903F00303012B22D0012B0DD3022B00D039E0204B9B7863
:40194000DBB2002B04D100F0E5FB0346FB752FE02EE01B4B9B78DBB2012B0CD11E4B1B78DBB243F00203DAB21B4B1A70FFF742FB0346FB751CE01BE0114B1B79DBB2002B5D
:4019800015D10F4B9B78DBB2DB43DBB20C4A1279D2B211461046114A125CD2B21340DAB20E4B5A54FFF726FB0346FB75FFE700BF00E000BFFB7D18461837BD4680BD00BF1F
:4019C00000600040DD81FF1FDC81FF1FD981FF1F5882FF1FC881FF1FDB81FF1FE081FF1F90B482B000AF0123FB7174E03F4AFB791B0113440C221A70FA793D4913465B00A2
:401A000013449B000B445B79DBB2002B1AD0FA79374913465B0013449B000B441B79DBB2DBB25BB2002B06DA324AFB791B0113440C229A700CE02F4AFB791B011344082230
:401A40009A7005E02B4AFB791B01134480229A702648F979FA79264C13465B0013449B002344DB889BB2DAB20B0103449A711F48F979FA791E4C13465B0013449B00234440
:401A8000DB889BB21B0A9BB2DAB20B010344DA711648F979FA79164C13465B0013449B002344DB889BB2DAB20B0103441A710F48F979FA790E4C13465B0013449B0023446B
:401AC000DB889BB21B0A9BB2DAB20B0103445A71FB790133FB71FB79082B87D9064BFF221A700837BD4690BC704700BF70600040E881FF1FFC5F00400A60004080B588B0B6
:401B000000AF0346FB7100237B830023FB7743E0FA7FA54913465B0013449B000B4400221A70FA7FA04913465B0013449B000B4400229A70FA7F9C4913465B0013449B00D9
:401B40000B440022DA70FA7F974913465B0013449B000B44083300221A80FA7F924913465B0013449B000B44083300229A70FA7F8D4913465B0013449B000B4400225A7085
:401B8000FA7F894913465B0013449B000B4400225A71FB7F0133FB77FB7F082BB8D9FB79002B10D000237B770AE07B7F7F4A0021D1547B7F7E4A0021D1547B7F01337B77EB
:401BC0007B7F002BF1D07B4B1B78DBB2002B00F01C81784B1B78DBB2013BDBB2184600F037FA38613B695B68FB60FB6807331B7803F04003002B08D06F4B1B78DBB243F065
:401C00000103DAB26C4B1A7007E06B4B1B78DBB223F00103DAB2684B1A703B6908333B613B691B78FB7701237B7790E03B695B687B610023BB7782E07A7F7B699B7803F0AF
:401C40007F039A4275D17A7F574913465B0013449B000B4408331B889AB27B699B889A420BD27A7F7B6998884F4913465B0013449B000B44083302461A807B691B781A46CA
:401C80004A4B9B5CDAB27B695B789A4251D17A7F7B699878444913465B0013449B000B4402461A717A7F7B69D8783F4913465B0013449B000B4402461A707B69DB7803F06F
:401CC0000303FB727B699B78DBB25BB2002B18DA7A7FFB7A012B01D1072000E00D20324913465B0013449B000B4402465A717A7F2D4913465B0013449B000B4401225A704F
:401D000017E07A7FFB7A012B01D1052000E00920254913465B0013449B000B4402465A717A7F214913465B0013449B000B4400225A707B6908337B61BB7F0133BB77BA7F84
:401D4000FB7F9A42FFF478AF7B7F01337B777B7F082B7FF66BAF3B695B687B6100237B7714E07B699B7803F07F027B6918780E4913465B0013449B000B44083302469A7013
:401D80007B6908337B617B7F01337B777A7FFB7F9A42E6D300F098F90246084B1A6000237B830123FB772BE0E881FF1FC881FF1F5882FF1FDD81FF1FDB81FF1FE481FF1F49
:401DC000FA7F134913465B0013449B000B447A8BDA80FA7F0E4913465B0013449B000B4408331B889AB27B8B13447B837B8B03F001039AB27B8B13447B83FB7F0133FB77AC
:401E0000FB7F082BDCD9FFF7EBFD2037BD4680BDE881FF1F90B585B000AF874B1B78DBB2002B00F00681844B1B78DBB2013BDBB2184600F00DF978607B6808337B607B68C7
:401E40001B78FB707B685B68BB607C4B1B78BB700023FB73E8E0BB681B78BA789A4240F0DD80BB78764AD35CDAB2BB685B789A4240F0D480BB689B7803F07F037B70BB68B7
:401E8000DB7803F003033B707A786E4913465B0013449B000B440022DA707A78BB689878684913465B0013449B000B4402461A717A78BB68D878634913465B0013449B00CC
:401EC0000B4402461A707A78BB6898885D4913465B0013449B000B44083302461A80BB689B78DBB25BB2002B18DA7A783B78012B01D1072000E00D20524913465B0013446A
:401F00009B000B4402465A717A784E4913465B0013449B000B4401225A7017E07A783B78012B01D1052000E00920464913465B0013449B000B4402465A717A784149134605
:401F40005B0013449B000B4400225A703E4A7B781B01134401229A703B4879787A78394C13465B0013449B00234408331B889BB21B0A9BB2DAB20B0103441A703248797855
:401F80007A78304C13465B0013449B00234408331B889BB2DAB20B0103445A702B4879787A78284C13465B0013449B002344DB889BB2DAB20B0103449A71244879787A7812
:401FC000204C13465B0013449B002344DB889BB21B0A9BB2DAB20B010344DA711B4879787A78184C13465B0013449B002344DB889BB2DAB20B0103441A71144879787A780C
:40200000104C13465B0013449B002344DB889BB21B0A9BB2DAB20B0103445A71BB680833BB60FB7B0133FB73FA7BFB789A42FFF412AF1437BD4690BDDD81FF1FD981FF1FD3
:40204000C881FF1FE881FF1FFC5F00407060004080B485B000AF0346FB71104B1B78DBB20F4ADB0013445B68FB60FB681033FB60FB681B78FA799A4202D30023FB6005E058
:40208000FB79DB00FA6813445B68FB60FB6818461437BD465DF8047B704700BFD881FF1FA428000080B400AF054B1B78DBB2054ADB0013445B681846BD465DF8047B7047DB
:4020C000D881FF1FA428000080B584B000AF104B1B78DBB2013BDBB21846FFF7B9FFB860BB68002B0DD0BB685B681B79FB71FB790233DB00BA681344BB60BB685B68FB60B3
:4021000001E00023FB60FB6818461037BD4680BDDD81FF1F80B582B000AF0023FB71314B1B79DBB203F07F03BB71BB79002B53D0BB79082B50D8BA79B9792B480B465B0004
:402140000B449B0003449B78DBB243F00103D8B2254913465B0013449B000B4402469A70BA79214913465B0013449B000B440022DA70BA79B9791C480B465B000B449B00BB
:4021800003445B78DBB243F00203D8B2164913465B0013449B000B4402465A70BA79124913465B0013449B000B441B79DBB2DBB25BB2002B06DA0D4ABB791B0113448D225A
:4021C0009A7005E0094ABB791B01134489229A70FEF710FF0346FB71FB7918460837BD4680BD00BF00600040E881FF1FFC5F004080B582B000AF0023FB71464B1B79DBB25F
:4022000003F07F03BB71BB79002B7DD0BB79082B7AD8BA79B97940480B465B000B449B0003449B78DBB223F00103D8B23A4913465B0013449B000B4402469A70BA79364911
:4022400013465B0013449B000B440022DA70334ABB791B0113447F221A70BA79B9792E480B465B000B449B0003445B78DBB223F00203D8B2284913465B0013449B000B448E
:4022800002465A70BA79244913465B0013449B000B441B79DBB2DBB25BB2002B18DABA791D4913465B0013449B000B445B78DBB2012B06D1194ABB791B0113440C229A706C
:4022C0001EE0164ABB791B0113440D229A7017E0BA79114913465B0013449B000B445B78DBB2012B06D10D4ABB791B01134408229A7005E0094ABB791B01134409229A707E
:40230000FEF778FE0346FB71FB7918460837BD4680BD00BF00600040E881FF1FFC5F004080B584B000AF0023FB73154B1B79BB73144B1B78DBB2013BDBB21846FFF788FEBE
:40234000B860BB685B681B79FB71BA7BFB799A4202D9BB7B012B0ED8BB7BBA7B0A498A5CD1B20A4AD154BB7B054A9278D1B2064AD1540123FB73FB7B18461037BD4680BDA3
:4023800000600040DD81FF1FC881FF1F5882FF1F80B582B000AF0023FB710F4B1B78DBB2DBB25BB2002B12DA0B4B5B78DBB2012B00D00CE0094B0A4A5A60094B1B789AB29F
:4023C000064B1A80FEF7FAFC0346FB7100BFFB7918460837BD4680BD00600040CC81FF1FC028000080B400AF054B1B78DBB203F040039B09DBB21846BD465DF8047B7047A9
:402400008F45004080B483B000AF0346FB7101BE0C37BD465DF8047B704700BF80B582B000AF0346FB80FB88044A127802FB03F3184600F08DF80837BD4680BD2481FF1F31
:4024400080B584B000AF03463960FB710F4B1B68FB60FB791F2B02D90020FFF7D3FFFB7903F01F0310339B00FA6813441B68BB60FB7903F01F0310339B00FA6813443A68BD
:402480001A60BB6818461037BD4680BD08ED00E080B582B000AF03460A46FB711346BB71BB79072B02D90020FFF7ACFFFB791F2B02D90020FFF7A6FFFB7903F01F0303F152
:4024C000604303F56443BA795201D2B21A700837BD4680BD80B400AF054B1B78DBB203F004039B08DBB21846BD465DF8047B70472151004080B485B000AF0346FB710B4B49
:402500001B78DBB223F00203FB730849FB795B00DBB203F00203DAB2FB7B1343DBB20B701437BD465DF8047B704700BF2051004080B400AF044B1B78DBB2DB09DBB2184686
:40254000BD465DF8047B70471151004000000000142816D902B4012114381049097811F0C001890904B40E4A515C04BC00BF00BF00BF8841FDD500BF00BF02BC704700BFA7
:4025800000BF70F10400FCD570470B050709EFF3108072B6704780F310887047004800408A250000AFF3008080B582B000AF1A4B1B78DBB203F00303012B02D0022B04D050
:4025C00012E0154B1B79BB7111E0134B1B79DBB203F07F02114913465B0013449B000B4408339B78BB7102E00023BB7100BF0C4B1A68BB7913441B78032B04D1FEF7A4FD9C
:402600000346FB7102E00023FB7100BFFB7918460837BD4680BD00BF00600040E881FF1FE481FF1F014B1868704700BF8C81FF1F0E4B70B51E460E4C0025E41AA410A54294
:4026400004D056F8253098470135F8E700F04EF9084B094C1E46E41AA4100025A54204D056F8253098470135F8E770BDF8280000F8280000F828000000290000024B014639
:40268000186800F017B800BF8C81FF1F10B5431E0A44914204D011F8014B03F8014FF8E710BD03460244934202D003F8011BFAE77047000030B500293CD051F8042C0B1FE8
:4026C0001D49002AB8BF9B180A680C4612B95A600B6030BD93420DD219685818904201BF5A5852181A60426823605A6030BD994203D80A4651680029F9D1146815199D42A3
:402700000AD11B682344D0188842136012D10868034413604B680CE002D90C23036030BD1C681819884201BF08684968001918605960536030BD00BFC081FF1F0000000041
:40274000305100404000C0510040100000000140001000140140000800400140000A004C0140000200500140200000001201000200000008B4041DF2000001028001000016
:402780000902220001010180190904000001030000000921110100012236000705810308000A0000040309042C0343007900700072006500730073002000530065006D0097
:4027C000690063006F006E0064007500630074006F0072000C034D006F007500730065000000000002030000360005010902A1010901A10005090509050919012903150069
:4028000025019503750181029501750581010501093009311581257F750895028106C0C000000000040000006C82FF1F6882FF1F000000002428000000000000000000001D
:40284000000000000000000001000000E827000001000000922700000100000030280000000081030800030003000000010000008027000001000000602800000100000071
:40288000582800000000000068280000010000006C2700000000000000000000010000006C280000010000008C28000012034D005300460054003100300030000100000049
:4028C0002800000000010400010000000000000000014359555342000000303030303100000000000000000043000000F8B500BFF8BC08BC9E4670474D000000BD01000065
:40290000F8B500BFF8BC08BC9E46704729000000202900000881FF1F88000000E0000000000000000E034600570053004E00300031000000408AF701E8800000210000009C
:40294000000074400000000000000000000000000000000000000000000000000000000000000000E828000000000000000000000000000000000000000000000000000093
:402980000000000000000000000000000000000000000000000000000000000000000000000000002C81FF1F0000000000000000000000000000000000000000000000004C
:4029C00000000000000000000000000000000000000000000000000000000000000000000000000000000000000000000000000000000000000000000000000000000000D7
:402A00000000000000000000000000000000000000000000000000000000000000000000000000000000000000000000000000000000000000000000000000000000000096
:402A40000000000000000000000000000000000000000000000000000000000000000000000000000000000000000000000000000000000000000000000000000000000056
:402A80000000000000000000000000000000000000000000000000000000000000000000000000000000000000000000000000000000000000000000000000000000000016
:020000040003F7
:0200000480007A
:400000000145004001520040025B00400107014001090140031501400117014001190140031B01400340014002410140024201400343014002460140054701400648014051
:4000400004490140064C0140054D0140015101407E027C4027842F84EE01EE01E810EC20EE02EE08EE08E810EC20EE0233883740CC709F40A7889F40A788A788AB40EE80DB
:400080001A80C60808084401AA40C208D00420802408A708AF80C860EE10AF08B040B404EE401F1034029C01AC08C601CC01AF10B001B402E808EC04003E00000000000010
:4000C000000014004000000000000000C00000008000000F0B000000C000000004000006020000000000000002001001000000000000000000000000000000000000000073
:4001000000000000000000000000000000000000000000000000000000000000000000000000000000000000000000000000000000000000000000000000000000000000BF
:40014000000000000000000000000000000000000000000000000000000000000000000000000000000000000000000000000000000000000000000000000000000000007F
:40018000000000000000000000000000000000000000000000000000000000000000000000000000000000000000000000000000000000000000000000000000000000003F
:4001C00000000000000000000000000000000000000000000000000000000000000000000000000000000000000000000000000000000000000000000000000000000000FF
:0200000490006A
:040000000800C0052F
:0200000490105A
:04000000BC90ACAF55
:0200000490303A
:02000000B6F355
:0200000490402A
:4000000000000000000000000000000000000000000000000000000000000000000000000000000000000000000000000000000000000000000000000000000000000000C0
:400040000000000000000000000000000000000000000000000000000000000000000000000000000000000000000000000000000000000000000000000000000000000080
:400080000000000000000000000000000000000000000000000000000000000000000000000000000000000000000000000000000000000000000000000000000000000040
:4000C0000000000000000000000000000000000000000000000000000000000000000000000000000000000000000000000000000000000000000000000000000000000000
:0200000490501A
:0C00000000012E16106900012E25C75CBF
:00000001FF